:020000040800F2
:1000000000200020F13B00087D3B00087F3B0008FA
:1000100000000000000000000000000000000000E0
:10002000000000000000000000000000813B00080C
:100030000000000000000000833B0008853B000832
:10004000413C0008413C0008413C0008413C00089C
:10005000413C0008413C0008413C0008413C00088C
:10006000413C0008413C0008413C0008413C00087C
:10007000413C0008413C0008413C0008413C00086C
:10008000413C0008413C000800000000413C0008E1
:10009000413C0008413C0008413C0008413C00084C
:1000A000413C0008413C0008413C0008413C00083C
:1000B000413C000800000000413C00080000000036
:1000C00010B5064C2378002B07D1054B002B02D02E
:1000D000044800E000BF0123237010BD1000002081
:1000E0000000000024410008044B10B5002B03D091
:1000F0000349044800E000BF10BDC04600000000F6
:100100001400002024410008002243088B4274D3CD
:1001100003098B425FD3030A8B4244D3030B8B4208
:1001200028D3030C8B420DD3FF22090212BA030C11
:100130008B4202D31212090265D0030B8B4219D3F2
:1001400000E0090AC30B8B4201D3CB03C01A524112
:10015000830B8B4201D38B03C01A5241430B8B425A
:1001600001D34B03C01A5241030B8B4201D30B0343
:10017000C01A5241C30A8B4201D3CB02C01A52416A
:10018000830A8B4201D38B02C01A5241430A8B422D
:1001900001D34B02C01A5241030A8B4201D30B0216
:1001A000C01A5241CDD2C3098B4201D3CB01C01A30
:1001B000524183098B4201D38B01C01A524143093A
:1001C0008B4201D34B01C01A524103098B4201D328
:1001D0000B01C01A5241C3088B4201D3CB00C01A95
:1001E000524183088B4201D38B00C01A524143080D
:1001F0008B4201D34B00C01A5241411A00D2014632
:10020000524110467047FFE701B5002000F006F8A4
:1002100002BDC0460029F7D076E770477047C04658
:100220008446101C62468C46191C634600E0C0469A
:100230001FB501F041FC002801D40021C8421FBDB8
:1002400010B501F09BFB4042013010BD10B501F02C
:1002500033FC002801DB002010BD012010BDC0468A
:1002600010B501F029FC002801DD002010BD01209F
:1002700010BDC04610B501F0BBFB002801DC00201A
:1002800010BD012010BDC04610B501F0B1FB002823
:1002900001DA002010BD012010BDC0468446081CB4
:1002A0006146FFE71FB500F073FB002801D4002171
:1002B000C8421FBD10B500F005FB4042013010BD23
:1002C00010B500F065FB002801DB002010BD012007
:1002D00010BDC04610B500F05BFB002801DD00201A
:1002E00010BD012010BDC04610B500F011FB002864
:1002F00001DC002010BD012010BDC04610B500F08B
:1003000007FB002801DA002010BD012010BDC04607
:10031000F0B5C6464E024702760A7B0A4400C50F76
:10032000F7004800984600B5240E2A00DB00000EB6
:10033000C90FBC468D4267D0221A002A00DCA5E016
:1003400000283AD1002F00D193E0511E002900D09F
:10035000BCE00124DB1B5A0146D59B019E093000FD
:1003600002F07EFA05388640844200DD9DE0041BE1
:10037000320020200134E240041BA64033005E1E00
:10038000B341002413435A0704D00F221A40042A11
:1003900000D004335A0129D50134FF2C00D181E06B
:1003A0002A009B015B0AE4B25B02E405580AD2070B
:1003B0002043104304BC9046F0BDFF2CE3D08021C5
:1003C0003800C904084384461B2A00DD82E020204F
:1003D0006146D140821A604690400200501E824120
:1003E0000A439B1A5A01B8D45A07CED1DE082A0014
:1003F000FF2C3AD1002E00D1AEE08023DB03334343
:100400005B025B0AFF24CFE7211A002952DD002896
:1004100031D0FF2CB7D080203E00C0040643B44644
:100420001B2900DDAAE020266046C840711A6646F6
:100430008E4031004E1EB14101435B185901D3D5A6
:100440000134FF2C00D187E0012278491A405B0873
:100450000B40134397E7002C00D0A7E0002B00D0FF
:10046000B6E03B1E62D10026002273025B0AE4B2B2
:100470009AE7140087E7002F4DD0481E002857D177
:10048000634401245A01AFD50224DDE7002A24D1B8
:10049000621CD2B2012ADEDDDE1B720135D5FE1AE6
:1004A0000D005CE72A0000237EE73300604A241A2F
:1004B000134068E7002963D1611CC8B201284EDDF2
:1004C000FF2949D063445B080C005CE7FF2A41D058
:1004D0000A0079E701229B1A84E7002C1DD0FF282F
:1004E00022D08024E404524223431B2A00DD8AE008
:1004F0001C002025D440AA1A93405A1E934123433E
:1005000062460400D31A0D0025E7002E00D026E72E
:1005100000220024A9E70C0035E7002B4DD0D24380
:10052000002AEDD0FF28E0D16346FF240D002AE722
:10053000FF290FD0010073E7002B61D0FF24002FAB
:1005400000D120E780224146D203114202D0164258
:1005500000D13B00FF2416E7FF24002324E7002CF2
:10056000EAD1002B58D0002F00D10CE763445A0188
:1005700000D439E72E4A0C00134004E701215CE760
:10058000002C1ED1002B40D0C94300290BD0FF28DE
:1005900036D01B2947DC1C002026CC40711A8B402A
:1005A000591E8B4123436344040047E7002B18D1B5
:1005B0003B1E2DD00D00FF24E5E63B0004000D009E
:1005C000E1E6FF281CD08024E40449422343E0E70D
:1005D000002F00D1D7E6DE1B72011FD5FB1A0D00DC
:1005E000D1E6FF24002F00D1CDE680224046D20381
:1005F0001042AFD01642ADD13B000D00FF24C2E641
:100600006346FF24BFE601237AE73B000400BAE615
:1006100080260022F603F0E63B00B4E6331E00D04D
:10062000E2E6002221E70123BDE7C046FFFFFF7D90
:10063000FFFFFFFBF0B557464E46DE464546E0B5A8
:1006400044024300C60F83B00F1C640A1B0EB2465F
:1006500053D0FF2B27D08022E400D20414437F2202
:10066000524290469844002399469B467D0278006A
:10067000FB0F6D0A000E009324D0FF2846D0802384
:100680000021ED00DB041D437F384746381A4F46F2
:100690000F43BF00B9463300009A874F53404A4684
:1006A000BA5801939746002C4ED108239946F73348
:1006B0009846FD3B9B467D027800FB0F6D0A000EBD
:1006C0000093DAD1002D26D1002001213300009AB9
:1006D0007A4F53404246101A4A460A439200BA588B
:1006E0001D009746009B2C009A468B465B46022BCA
:1006F00031D15346FF21002438E0002C17D10423C8
:1007000099460023984601339B46AFE7FF20002D12
:100710000BD10221DAE7280002F0A2F8431F9D4026
:1007200076235B42181A0021AFE70321ADE72000D2
:1007300002F096F8431F9C4076235B421B1A9846B2
:10074000002399469B4691E70C239946F33398463C
:10075000FC3B9B468AE7032B00D1A5E05546012BC5
:1007600000D081E00123002100242B406402C90550
:10077000600ADB070843184303B03CBC9046994627
:10078000A246AB46F0BD80240023E403FF21EDE741
:10079000FF210024EAE70123591A1B2966DD019A8B
:1007A000134000210024E1E78023DB031C4238D002
:1007B0001D4251D01C436402640A3300FF21D5E777
:1007C00063016C01A3423BD21B26002101380125A5
:1007D0001F0049005B00002F01DB9C4201D81B1B5E
:1007E0002943013E002EF3D11C00631E9C410C43A3
:1007F00001007F310029CEDD630704D00F232340A1
:10080000042B00D00434230103D501002C4B80318C
:100810001C40FE290DDD0123019AFF211340002415
:10082000A4E78023DB031C436402640A3300FF2136
:100830009CE70123019AA401640AC9B2134095E719
:100840001B1B1A260121C2E7009B8B469A460024F7
:100850004CE76302E5D500258024E4032C436402C1
:10086000640A009BFF2181E70195C1E72300202056
:10087000CB40411A8C40611E8C411C43630704D05D
:100880000F232340042B00D00434630105D501233A
:10089000019A01211340002468E70123019AA40171
:1008A000640A1340002161E78023DB031C436402D8
:1008B000640A5346FF2159E760410008A04100083F
:1008C000FFFFFFF770B5420045024E024C00C30F18
:1008D0006D0A120E760A240EC90F0120FF2A06D0D7
:1008E000FF2C03D0A24201D1B54206D070BD002D2D
:1008F000FCD1FF2CFAD1002EF8D18B4206D001207A
:10090000002AF3D12800451EA841EFE70020EDE7BB
:10091000F0B5420045024C02C30F48006D0A120EAA
:10092000640A000EC90FFF2A1ED0FF2821D0002A1A
:100930000AD16E426E41F6B200280FD1002C0DD1C3
:100940000020002D09D005E0002801D1002C01D0A5
:100950008B4211D0012158420843F0BD002EF7D040
:10096000012001390843F8E7002DDED00220404283
:10097000F3E7002CDBD0F9E78242EBDC04DBA54295
:10098000E8D80020A542E8D20121581E0843E4E738
:10099000F0B542004D024C004602760A120EC30F1B
:1009A0006D0A240EC90FFF2A16D0FF2C18D0002A7A
:1009B0000AD170427041C0B2002C15D0002805D079
:1009C000012001390843F0BD002C13D0994214D006
:1009D00001205B421843F6E70220002EF3D1E4E742
:1009E0000220002DEFD1E2E7002DE7D10020002EFC
:1009F000E9D0EDE7002DE9D1EAE7A24206DCDFDB32
:100A0000AE4203D80020AE42DAD3DCE701204942EF
:100A10000843D8E7F8B557464E464546DE46E0B5AA
:100A20004702460088467F0A360EC40F002E47D084
:100A3000FF2E24D0FB008027FF041F43002399468C
:100A40009A467F3E43465D025800DB0F6D0A000E5A
:100A5000984643D0FF283BD0EB0080250022ED04D0
:100A60001D437F383618731C41469B464B466140F8
:100A700013430F2B64D875489B00C3589F46002F23
:100A800042D108239946063BFF269A46DAE74146BB
:100A9000022A28D0032A00D1CEE0012A00D0ACE0FF
:100AA000114000200022CCB24002D205400AE407E7
:100AB000104320433CBC90469946A246AB46F8BD45
:100AC000002F15D104239946033B00269A46B9E727
:100AD000FF200222002DC5D00322C3E7002D19D12B
:100AE00000200122BEE70124FF220C400020DBE7AA
:100AF000380001F0B5FE7626431F9F400023764262
:100B0000361A99469A469DE70C239946093BFF26DB
:100B10009A4697E7280001F0A3FE431F9D407623E5
:100B20005B42181A00229DE780200024C003FF22A8
:100B3000BAE73D005246ABE73D0021005246A7E729
:100B40003B0C9C462A04120C2B0C14006046654694
:100B50003F043F0C7C4342435D437B43270C9B187F
:100B6000FF18BA4203D980235B029C4665442404E3
:100B70003A04240C121993015C1EA3413F0C920EFF
:100B80007D191A43AD0115432B0104D501235E469F
:100B90006A081D40154332007F32002A25DD6B07AD
:100BA00004D00F232B40042B00D004352B0103D598
:100BB0003200274B80321D40FE2A94DC0124A8011C
:100BC000400AD2B20C406FE78020C003074207D032
:100BD000054205D128434002400A4446FF2263E70C
:100BE00038434002400AFF225EE70124A31A1B2B70
:100BF00005DD0C400022002056E75E46CBE72A00C8
:100C00002020DA40C31A9D402B005D1EAB411343E8
:100C10005A0704D00F221A40042A00D004335A0184
:100C200004D5012401220C4000203DE701249B0152
:100C3000580A0C40002237E780200124C0032843D3
:100C40004002400A0C40FF222EE7C046E041000867
:100C5000FFFFFFF770B5002830D0C317C4185C4001
:100C6000C50F200001F0FCFD9E231B1A962B0DDC06
:100C70009622D21A94402A006402640ADBB264020B
:100C8000DB05600AD2071843104370BD992B19DCAD
:100C90009922D21A002A29DD94402200144C1440D3
:100CA000510704D00F210A40042A00D00434620105
:100CB00013D4A401640ADBB22A00E0E70022002377
:100CC0000024DCE705222100121AD140B922D21AF1
:100CD0009440621E94410C43DAE7054B2A001C4005
:100CE0009F23A4011B1A640ADBB2C8E72200D5E7E0
:100CF000FFFFFFFBF8B54546DE4657464E460C0360
:100D0000E0B54E00C90F88460D00610A440F0C4340
:100D1000C70019035800DB0F9B464B0A510F0B43CA
:100D2000760D400D1900D200D84500D1AEE0351A3D
:100D3000002D00DCF6E000280FD1134300D1DBE0EA
:100D40006B1E002B00D037E1BA1A9742BF41641ADC
:100D50007F42E41B0126170024E0C64B9E424DD083
:100D600080231B041943382D00DD07E11F2D00DD12
:100D700038E12020431B9A460B0050468340994699
:100D800013004846EB401843030050468240501E73
:100D90008241E9401A43BA1A611A9742A4411700E6
:100DA00064420C1B230262D56402650A002D00D147
:100DB000DFE0280001F054FD0300083B1F2B00DD9D
:100DC000D2E020223C00D21A9D40D4409F402543CF
:100DD0009E4200DDC4E09E1B731C1F2B00DDF1E072
:100DE000202238002900D21AD840914097402C0088
:100DF0000143781E8741DC4000260F437B0709D062
:100E00000F233B40042B05D03B1DBB42BF417F421B
:100E1000E4191F0023022CD5964B01369E4200D1C7
:100E20009AE04546944BFF081C4060077605640233
:100E30000743240B760D00212403230B0C0D8F4A4E
:100E400024051C431440330523435B00ED075B0876
:100E50002B43380019003CBC90469946A246AB464D
:100E6000F8BD6446044300D111E2040067467B07E5
:100E7000C6D145466007FF080743E4087D4B9E4204
:100E800030D024037605240B760DD4E7331A9A4626
:100E9000002B78DD002831D076488642AED0802005
:100EA000000401435346382B00DCE9E00A43511E9D
:100EB0008A410021D219BA42BF4109197C42170068
:100EC0000C192302D3D56B4B01369E4200D13AE177
:100ED0000120694B1C407B0807401F43E007074384
:100EE00064088BE723003B4300D1CBE1802212034F
:100EF00014432403240B9EE72E007FE708001043D1
:100F000000D1B4E0581E002800D0DEE0BA18BA4282
:100F10009B4164185B42E418170001262302A6D502
:100F20000226D5E7002D6ED1701C4005400D01282A
:100F300000DCF9E0B81A844687428041E51A404255
:100F40002D1A280200D489E0D71BBA4292411C1BFB
:100F50005242A51AD84629E74546002400276AE7E9
:100F6000454CF61A2C4049E73D00283885400027BB
:100F70002EE7380001F074FC20301DE70A43511EB3
:100F80008A41002107E7002B00D0F3E0701C4305E5
:100F90005B0D012B00DCADE0364B984200D1D1E077
:100FA000BA18BA42BF4164187F42E419E7075208F1
:100FB00017436408060021E72E48854200D193E0DC
:100FC0001D00D0E629001F3EF140202B00D18DE00E
:100FD0004022D31A9D402F437D1EAF4100240F4372
:100FE000002644E72B000800203BD8400300202DBA
:100FF00000D17DE04020451BA9400A43511E8A4193
:1010000000211A43C7E6002E50D01A4EB04257D0E6
:1010100080266B429946360434434B46382B00DD1C
:10102000D6E01F2B00DD35E12026F51A2600AE4064
:10103000B2463E00DE40AC46350056462E4365467D
:10104000AF407D1EAF41DC403743D71BBA429241CF
:101050000C1B5242A41A0600D846A3E66446674613
:101060002C4300D0A2E600250026002706E71E003C
:10107000C4E6C046FF070000FFFF7FFFFFFF0F80B1
:101080001F2B63DC2020C31A080098409C4683462F
:1010900053461000D84003005846184363469A4010
:1010A000531E9A4153460243D94003E726003E436C
:1010B00006D0EB439946002BC7D0944EB042ACD13A
:1010C0000C0017000600D84698E6904B9A450BD0C6
:1010D0008246E7E6002800D09EE01800104300D1C9
:1010E000E9E01C001700D846884E87E6002572E725
:1010F000002182E723003B43002E00D0ABE0002B11
:1011000000D1E7E00B00134300D177E6BA18BA42EA
:10111000BF4164187F42E419230200D4F2E07C4B03
:1011200017001C40060069E620003843002ED1D18C
:1011300000285BD11C00144300D1A8E01C0017005C
:10114000D8465BE606000024002797E650460B00D1
:101150002038C34099465346202B00D195E04023C8
:1011600050461B1A99400A43511E8A414B460021A2
:101170001A439FE6002E30D126003E4367D0DB4362
:101180009A46002B1CD0614EB04260D05346382B9B
:1011900000DD96E01F2B00DD9FE02026F31A2600DD
:1011A0009E409C46B34653463E00DE4033005E46BA
:1011B0001E4363469F407B1E9F415346DC4037439E
:1011C000BF189742924164185242A418060078E66C
:1011D00027437C1EA741002437E74C4EB04236D04F
:1011E00080265B4236049A463443CFE7180010430A
:1011F00000D103E6B81A84466745AD41E01A6D4256
:10120000401B050200D42CE6D71BBA4292411C1B9E
:101210005242A41AD846F1E51800104300D163E702
:10122000F808670707438020E4080003044208D059
:10123000DD08054205D1D208590711430F002C00E3
:10124000D8467B0FE4001C43FF00304ED6E50C006F
:1012500017000600D2E5002B38D00B00134300D155
:1012600042E7F808670707438020E40800030442C8
:10127000E7D0CB080342E4D1D208490711430F005D
:101280001C00DEE700270024D5E500216BE70025E0
:101290000027F3E54E462500203EF5404B462E0044
:1012A000202B2DD04025ED1AAC4027437C1EA741B2
:1012B00000243743C9E6802400252403134E002769
:1012C000DCE527437C1EA741002479E70C001700CA
:1012D0000E4E93E50C00170090E556462300203E85
:1012E000F34099465346202B0ED0402356469B1B75
:1012F0009C4027437C1EA7414B4600241F435FE7C9
:101300000024D2E71700B2E50024F2E7FF0700004F
:10131000FFFF7FFFF0B557464546DE464E46E0B537
:101320004C000E0387B0834692461D008046360B64
:10133000640DCF0F002C4FD06F4B9C4235D08023D3
:10134000420F1B04F600134333439946C3009846EB
:101350006A4B00269C460023644403932B031B0B1B
:101360009B466B00ED0F50465B0D01955ED0624AC7
:10137000934253D05A46D1008022400F12040243B8
:101380000A4393465246D1005C4A94460022634485
:101390003800684084460290E41A16430F2E00D9A4
:1013A000B4E0574BB6009B599F4603003343994620
:1013B0006CD100239846023308260393CEE7CB4630
:1013C0004146039A0197022A65D1019B4A4C9C46EB
:1013D0000023002298466BE00300334399464ED029
:1013E000002E00D1BCE1300001F03AFA03000B3BC3
:1013F0001C2B00DDACE11D22D31A5A460100DA4055
:1014000008398E401300334399465B468B4098461B
:1014100000233C4C0026241A03939FE751465A466A
:10142000114329D1002293460232B1E759460143C4
:101430001ED05B46002B00D19EE1584601F010FA09
:1014400003000B3B1C2B00DD8FE102005946083ADC
:1014500091408B461D21CB1A5146D9400B0059466D
:101460000B4351469B469140264B00221B1A8FE7A7
:10147000002301229B468BE75146032288E7002385
:101480009846013304260024039367E70323B146FB
:1014900003930C2662E7032A00D15CE2019B012A38
:1014A00000D0E4E113409C4600230024002298462B
:1014B00000211203130B0A0D12051A432305124CC7
:1014C00040462240134362465B00D2075B08134349
:1014D000190007B03CBC90469946A246AB46F0BD09
:1014E000002380229C4612039846034CE0E7002329
:1014F000014C00229846DBE7FF07000001FCFFFFDC
:10150000204200080DFCFFFFFFFF0F80D94500D9E6
:1015100039E100D134E1002346464D469A46013C6C
:101520005B460A0E1B021A430B02170C03931304AB
:101530001B0C3900280090460193FEF7E5FD0200E0
:10154000019B83465A43280039009146FEF762FE0C
:10155000350C09040D43A9450DD95B464544013BB3
:10156000A84500D93AE1A94500D837E102235B42FA
:101570009C464544E3444B46EB1A3900180004935B
:10158000FEF7C2FD019B05004343390004989946CC
:10159000FEF740FE330409041B0C0B43994509D99F
:1015A00043446A1E984500D91AE1994500D817E1CD
:1015B000023D43444A469B1A5A4612042A43039961
:1015C0009346100C0A0C914609045A46090C4E46E3
:1015D0000D001204120C45430591514372437043B0
:1015E00052190E0CB218954203D980256D02AC46F3
:1015F0006044150C09041204090C2818521883427F
:1016000000D2CEE000D1C8E01D1A53469E1AB24562
:1016100092415242AB1A9A46984500D117E13900DF
:101620001800FEF771FD019B050043433900504649
:101630000493FEF7EFFD04980B04310C1943884224
:1016400009D941446B1E884500D907E1884200D87A
:1016500004E1023D4144049BCB1A18003900049375
:10166000FEF752FD019B82464343390004980193E3
:10167000FEF7D0FD01980B043104090C1943884290
:101680000DD953464144013B884500D9E8E08842E2
:1016900000D8E5E002235B429C464144E244019BC2
:1016A0002D04CE1A51462943059D4F462A000B04AE
:1016B000080C1B0C5A4345437B4378435B19170CBA
:1016C000FB189D4203D980256D02AC4660441D0C79
:1016D00012041B04120C28189B18864200D293E0B7
:1016E00000D18EE001231943A04BE318002B00DC4E
:1016F00099E04A0700D09EE05A46D20106D55A46E4
:101700009B4B1A4080239346DB00E318994A93428F
:1017100068DD0123029A984C1A40002394469846AB
:101720000022C5E680224B46120313420AD05B46D4
:10173000134206D11A431203120BAC4688468E4C54
:10174000B6E64B461A431203120BBC468A4CAFE670
:1017500003005A46283B9A4000239146984657E694
:10176000584601F07DF8203040E603005246283B01
:101770009A400021934677E601F072F820305FE648
:10178000884500D2C7E64B46DE075D0843465B0846
:101790001E434346DB079A46C2E60025924500D326
:1017A00033E7039E5946B446E244B245AD416D422B
:1017B0004544EB180139984507D2984200D97FE09B
:1017C00000D1BCE01D1A8B461FE79845FAD1039D56
:1017D0005545F2D943468B461D1A16E79B46CAE685
:1017E0001500E7E65A46C90852070A435B059046CA
:1017F0005C0D5A460123029952021940120B8C4685
:1018000056E6002B00D16FE746444A1EB04529D961
:101810001100864200D065E7039A934200D061E749
:1018200062E7012149420120C21A382A21DD029BC8
:1018300003409C4638E60F220A40042A00D15BE7A9
:101840000A00111D914292415242934454E7474B82
:10185000E318002BE5DD01225242F2E71D00FAE613
:101860009A461CE7B04239D86ED011003AE702938D
:101870003AE71F2A3CDC20239B1A0C00584699406B
:1018800098404B1E99415B46D440D34020430843C7
:101890001A00430709D00F230340042B05D0010091
:1018A000081D88429B415B42D21813023AD501239E
:1018B000029A01241A400023944698460022F7E534
:1018C000022149428C46039DE344AC46E244AA45CA
:1018D000AD416D424544ED182D1A96E68A1E0399D6
:1018E0004D008D42894149424144761803958FE766
:1018F0001F204042C31A5846D8400300202A28D04F
:1019000040205D46821A954029434A1E9141194361
:10191000072300220B4009D00F2300220B400800B0
:10192000042BBDD1010053075202120BC908194301
:10193000012388460299002419408C46B8E5524597
:10194000BED88B46002560E6039D9D42C6D311009C
:1019500062E70025D8E780225B4612031A43019B09
:101960001203120B9C468846034CA1E5FF030000BE
:10197000FFFFFFFEFE070000FF070000F0B54F4627
:101980004646D6465C00C0B51F03DB0F9A46174B90
:101990000E034D0084468046360B6D0DC90F9146EF
:1019A0003F0B640D01209D4208D09C4201D0A5420E
:1019B0000BD01CBC90469946A246F0BD634633430B
:1019C000F7D1AC42F5D13A43F3D10120BE42F0D178
:1019D000C845EED1514507D0002DEAD163461E43DC
:1019E0003000461EB041E4E70020E2E7FF070000B8
:1019F000F0B54546DE4657464E46E0B51F033D0B63
:101A00002C4F0E034C00AB465D008446360B640D34
:101A1000C90F90466D0DDB0FBC422AD0254FBD4249
:101A20002DD0002C0FD130430700814678427841F9
:101A3000C0B2002D17D15F463A4314D14B46002067
:101A4000002B0AD006E0002D02D15846024301D0F7
:101A5000994218D04842012108433CBC904699461F
:101A6000A246AB46F0BD0028F2D00120013B18434E
:101A7000F3E737000743D1D002204042EDE75F464D
:101A80001743CED0F8E7AC42E4DC03DA481E01216C
:101A90000843E2E75E45DDD806D000205E45DCD293
:101AA0000123481E1843D8E7C445D3D80020C445B5
:101AB000F6D3D2E7FF070000F0B54E464546DE46B6
:101AC00057465C00E0B51F03DB0F99462A4B0E0317
:101AD0004D00C90F8446360B6D0D8B4690463F0B6B
:101AE000640D9D4220D0244B9C4222D0002D12D167
:101AF000304343424341DBB2002C1FD0002B0CD0BB
:101B00004B460120013B034318003CBC90469946DC
:101B1000A246AB46F0BD002C16D0CB4517D05B4695
:101B2000594201230B43EFE7310002230143EBD17C
:101B3000D9E7390002231143E6D1D7E73A43DDD193
:101B400000230028E0D0EAE73A43E6D1E7E7A542E0
:101B5000E5DC05DBBE42E2D807D00023BE42D3D28B
:101B60005946012301390B43CEE7C445D7D800239A
:101B7000C445F5D3C8E7C046FF070000F0B5574697
:101B80004546DE464E46E0B50C0398464E00230B14
:101B900087B0070092469B46760DCD0F002E6BD086
:101BA0006D4B9E4235D080245B46420F2404DB00FF
:101BB00014431C43C3009946684BA3469C4600232C
:101BC00000276644029343461C035A00DB0F50462D
:101BD000240B520D984600D176E05F4B9A426DD0AF
:101BE0008023410F1B040B435C49E4008C461C43DB
:101BF000C300002062444146B6186940721C01913E
:101C0000944607430F2F00D9B0E0554ABF00D25980
:101C100097465B460343994600D087E000239B46E6
:101C2000023308270293CEE742460192022867D08A
:101C3000032800D10EE2012800D062E10023002435
:101C40000022994601990140CDB2002112030B0DEB
:101C5000120B1B051343434A240513401C43640025
:101C6000ED0764082C434846210007B03CBC904671
:101C70009946A246AB46F0BD034399464FD05B461A
:101C8000002B00D189E1584600F0EAFD03000B3B30
:101C90001C2B00DD7AE11D22D31A3A0001005C46BC
:101CA000DA4008398C4013008F4023439B46B946E5
:101CB00000232D4E0027361A029384E75346234310
:101CC0002AD10024022096E75346234320D0002C3B
:101CD00000D157E1200000F0C3FD03000B3B1C2B9B
:101CE00000DD49E11D21CB1A51460200D94053467F
:101CF000083A944093400C431B4A121A00207AE79A
:101D00000125019B144C1D400023002299469CE7AD
:101D10000024002201206EE7534603206BE70023D6
:101D20009B4601330427002602934CE70323814698
:101D30000C27029347E780220023002512039946CF
:101D4000054C82E75C464B4602986FE75C464B4683
:101D5000019502986AE7C046FF07000001FCFFFFFB
:101D600060420008FFFF0F800DFCFFFF4A46494616
:101D7000170C1A0C1B041B0C08041900000C41431F
:101D80001500884619007D4379430395894629004B
:101D9000150045434D44029545462D0CAA46029D2B
:101DA0005544A94506D98A46802149028946CA4434
:101DB00051460391290C0491414609042D04090C54
:101DC00088462900250C24044144240C0591210057
:101DD00041438846210079438A466843414650443E
:101DE0008146080C48446F43824503D9802149024B
:101DF00089464F44010C89463900494402914146C5
:101E00000F0404993F0C88460004C01980444146E1
:101E1000049159460F0C0904090C884659438A4617
:101E200039005143894641464A435146090C8B4685
:101E30007B43D2185A44934203D980235B029B46CA
:101E4000D94451460904090C8A46414661437C4302
:101E5000130C12044B445244A1468A463C004146AE
:101E60006C434D4351464D440F0C7D19A94503D990
:101E70008021490288464444049F0399B84641445E
:101E80008B468345804141428846514608042F04D1
:101E9000000C3F185846029910188946904292410A
:101EA0004F44BA46524299469346C244D144CB4429
:101EB0008F42BF41C245894199459B41934592411B
:101EC0007F4249422D0C52420F435B4213437F191C
:101ED000FF185B463C19DB0D059A64021C43430264
:101EE00013435D1EAB415A46C00D034352021343D8
:101EF000E20156D501205A0803401343E207134379
:101F000064085A48604400284DDD5A0709D00F2262
:101F10001A40042A05D01A1D9A429B415B42E418DC
:101F20001300E20104D58020514AC00014406044EF
:101F3000504A904200DDE3E60125DB0862071A43C0
:101F40006402019B9146220B4405640D1D407CE612
:101F5000802259461203114208D0144206D122436E
:101F60001203120B45469946434C6EE65B461A43F4
:101F70001203120B404C68E603005446283B9C4079
:101F80000023B9E600F06CFC2030A6E60300283BF5
:101F90009F400023BB4699468AE600F061FC203052
:101FA00074E6B446ADE701252A1A382A06DD019BFE
:101FB00000241D4000230022994646E61F2A21DC0A
:101FC00020252000AD1A1E00AB40A840D6405D1E63
:101FD000AB4130431843D440430709D00F2303409B
:101FE000042B05D00300181D98429B415B42E41866
:101FF000230221D50125019B01241D40002300223D
:10200000994622E61F2521006D42281AC14008008A
:10201000202A1DD05F35AA1A944023435C1EA34199
:10202000072503431D400022002D09D00F22002464
:102030001A401800042AD6D1030065076402220B57
:10204000DB082B4301259946019B00241D40FCE53C
:102050000024E2E7802201251203224301991203A2
:10206000120B0D409946044CEFE5C046FF030000FB
:10207000FFFFFFFEFE070000FF070000F0B5464629
:10208000D6464F460C03C0B5CD0F4E00610A440F33
:102090000C43C1005800400D84468A460F001903C6
:1020A000500F490A0143C648760DA846DB0FD200FF
:1020B000844500D1D8E001204340AB4200D1A6E0E6
:1020C0006046351A002D00DC05E1002810D10B0018
:1020D000134300D1D7E06B1E002B00D04BE15346D9
:1020E0009F1ABA458041641A4042241A01261EE014
:1020F000B34B9E4248D080231B041943382D00DD8A
:1021000019E11F2D00DD4CE120230F005B1B1000A7
:102110009A409F40E840531E9A41E94007431743C5
:102120005346DF1B611ABA45A44164420C1B2302CB
:1021300000D4C5E06402650A002D00D1F6E0280055
:1021400000F08EFB0300083B1F2B00DDE9E020229E
:102150003C00D21A9D40D4409F4025439E4200DD62
:10216000DBE09E1B731C1F2B00DD0AE120223800E0
:10217000D21A290097402C009140D8407A1E9741EE
:10218000DC40002601430F437B0709D00F233B406F
:10219000042B05D03B1DBB42BF417F42E4191F0009
:1021A000230225D5864B01369E4200D1AFE0854BF8
:1021B00001251C4043466207FF0864027605174369
:1021C000240B760D1D4000212403230B0C0D7E4AA9
:1021D00024051C431440330523435B00ED075B08D3
:1021E0002B43380019001CBC90469946A246F0BD0E
:1021F000012543466207FF081743E4081D40704B62
:102200009E4236D024037605240B760DDBE7634629
:10221000F31A002B00DC94E06046002835D06848B3
:102220008642B1D080273F043943382B00DCFDE0E3
:102230000A43170000217A1E9741574457458041B1
:10224000091944420C1923023AD55D4B01369E42CE
:1022500000D14BE101225B4B1C407B0817401F4320
:10226000E207174364088FE70800104300D024E713
:1022700021E723003B4300D1B9E18022120314433C
:102280002403240B9FE72E007EE70800104300D1B3
:10229000CAE0581E8446002800D0E7E05244524568
:1022A000804164184042241817000126230207D5F4
:1022B0000226CFE764462C4300D1B3E12C006746E9
:1022C0007B0700D062E76307FF081F4301254346F1
:1022D000E4081D4093E7002D78D1751C6D056D0D48
:1022E000012D00DCF2E05046801A8245BF41651A9C
:1022F0007F42ED1B8446280200D48CE05046171A1A
:10230000BA4292410C1B5542651B984614E70125C1
:10231000434600241D40002755E72A4CF61A2C405E
:1023200032E73D0028388540002717E7380000F0E5
:1023300097FA203006E70A43170000217A1E9741DA
:10234000EEE6002B00D0E5E0731C9C465B055B0DC0
:10235000012B00DC9FE01A4B9C4500D1C5E05244A4
:1023600052458041641840422418E7075208174339
:102370006408664608E71248854200D185E01D00E2
:10238000BCE629001F3EF140202B00D17FE0402217
:10239000D31A9D402F437D1EAF4100240F430026DA
:1023A0008EE72B000F00203BDF40202D71D0402313
:1023B0005D1BA9400A43511E8A4100211743AFE625
:1023C000FF070000FFFF7FFFFFFF0F80002E3ED0C2
:1023D000B34EB44545D0802636046D423443382D83
:1023E00000DDA8E01F2D00DD1FE12026270050465C
:1023F000761BB740E84007435046B040461EB04108
:10240000EC403843171ABA4292410C1B5242A41AAC
:10241000664698468BE6644667462C4300D08BE6BA
:10242000002500260027EAE61E00ADE61F2B60DC33
:102430002027F81A0F00844687401000D840074331
:1024400060468240501E8241D9401743F5E626007F
:102450005046064305D0ED43002DD3D0904EB445F1
:10246000BDD10C001700664698468DE68C48834225
:102470000BD06346D9E6002D00D096E0080010434B
:1024800000D1E2E00C0017009846854E7CE600255E
:1024900080E700218EE7230050460343002E00D042
:1024A000A8E0002B00D1DEE00B00134300D16BE667
:1024B00052445245804164184042241817002302B8
:1024C00000D4FDE6774B66461C405DE6250050468D
:1024D0000543002ECFD1002D4FD10C00144300D165
:1024E000A0E00C00170098464EE666460024002740
:1024F00085E61F000800203FF8400700202B00D190
:102500008EE04020C31A99400A43511E8A4100219F
:10251000174392E6002E14D126005046064362D09F
:10252000DB43002B5CD187189742924164185242DA
:10253000A418664687E650462043441EA041002466
:1025400060E7574EB4454ED0802636045B42344394
:10255000382B00DD7FE01F2B00DD8BE020262700DD
:102560005046F61AB740D84007435046B040461E82
:10257000B0410743DC40BF18D6E70D00154300D13A
:1025800002E65046801A8245BF41651A7F42ED1B24
:102590008446280200D48DE65046171ABA4292416A
:1025A0000C1B5242A41A9846EEE50D00154300D1CB
:1025B0006BE750466707C00807438020E408000324
:1025C000044207D0CD08054204D12C009846D70814
:1025D00049070F437B0FE4001C43FF00304ED3E557
:1025E0002F4EB445B4D10C0017006646CCE5002749
:1025F0000024E8E5002B39D00B00134300D144E759
:10260000C008670707438020E40800030442E1D0C4
:10261000CB080342DED1D70849070F431C00D9E796
:10262000002171E700250027E9E52E002700203E64
:10263000F740202D2FD04026751BAC40504620433C
:10264000441EA04100243843DCE6802400252403F6
:10265000134E0027D3E5504620430700781E8741DC
:102660000024BF1860E70C0017008DE50C00170070
:102670000B4E89E51E002700203EF740202B0CD092
:102680004026F31A9C4050462043441EA041074375
:102690000024BF1848E70024D0E70024F3E7C04631
:1026A000FF070000FFFF7FFF4100090E4B1C70B5C4
:1026B000DBB24602750AC40F012B14DDE0239B0038
:1026C0006D07360BCB1800210A0D280012051C4D92
:1026D00032435B052A405B0813435B00E4075B0859
:1026E0002343190070BD002914D1002D1ED02800ED
:1026F00000F0B6F80A281CDC0B232A001B1ADA406B
:10270000030015339D400F4B12031B1A5B05160B7C
:102710005B0DD8E7002D06D0320B802636036D07FF
:102720001643094BCFE7084B0026CCE700230026D1
:10273000C9E703002A000B3B9A400025E3E7C046A7
:10274000FFFF0F8089030000FF070000F0B54C0079
:10275000640D0B03621C450F5B0A52052B43C90F26
:10276000C500520D012A28DD3A4AA618FE2E1BDCB0
:10277000002E3EDD80010200501E82416D0F2A4373
:10278000DB0013435A0704D00F221A40042A00D05A
:1027900004338022D2041A405AD00136FF2E03D0CF
:1027A0009B015B0AF4B201E0FF2400235802E40518
:1027B000400AC90720430843F0BD002C07D01D4341
:1027C000F2D08020DB0080040343FF26DAE72B43AE
:1027D00003D00523DB08FF2C03D05B025B0AE4B2C5
:1027E000E4E7002B32D08020C00303435B025B0A86
:1027F000DCE73200173214DB80221E271204134359
:10280000BF1B1F2F0FDC144A944664442A00A540C6
:102810002E00A340751EAE41FA40334313430026F9
:10282000B0E70024D5E702225242961B1A00F2407C
:10283000202F09D0094884466444A3402B435D1EE1
:10284000AB41002613439DE70023F7E70023ADE7E4
:102850003400BFE780FCFFFF82FCFFFFA2FCFFFF0C
:102860001C2101231B04984201D3000C10391B0AC0
:10287000984201D3000A08391B09984201D3000984
:10288000043902A2105C40187047C04604030202DB
:1028900001010101000000000000000010B504006B
:1028A00000F0E6FEFA218900FDF72EFC00F066F844
:1028B000012000222100404200F030F8002010BD2D
:1028C0001023064A10B5116800200B431360FFF770
:1028D000E5FF01F007F9002010BDC04600200240CE
:1028E000024A1368013313607047C046300000206D
:1028F000014B18687047C0463000002037B5019082
:10290000FFF7F6FF019C0500631C5A1E9341E41873
:10291000FFF7EEFF401BA042FAD337BD70B5890127
:10292000002814DA0F23C0B20340083B114A9B0869
:102930009B009B18032210409040FC321500114070
:1029400085408140DC69AC432143D96170BD0325DA
:1029500083082840A840FC352E00074A9B009B189E
:10296000C02286402940814092009C58B4432143B4
:102970009950EBE700ED00E000E100E0094A431E5A
:10298000012093420DD8C021074A08485360036ACA
:1029900009061B021B0A0B430362002007239060F9
:1029A00013607047FFFFFF0010E000E000ED00E063
:1029B000054B1A68042802D110431860704704219F
:1029C0008A431A60FAE7C04610E000E0704710B58D
:1029D000FFF7FCFF10BD0000F0B50B6887B0029355
:1029E00000230191029ADA4001D107B0F0BD012223
:1029F0009A4003920399029A0A40009200D18CE017
:102A0000019A1021526816008E43022E0ED107251E
:102A10001D40AD000139A940DC08A4000419276A53
:102A20008F4301990969A9400F43276203245F007E
:102A3000BC40E4430568013E2540AC4603251540F3
:102A4000BD4061460D430560012E0FD8019986688F
:102A5000CD682640BD403543856046680399150919
:102A60008E4301210D409D4035434560C568019965
:102A70002C408D688021BD4049052C43C4600A422A
:102A80004BD00121264C0326A5691E400D43A561AC
:102A9000A4699D080C400594059C0F242149AD00B4
:102AA000B6006D18B4409021AF68C905A743002453
:102AB00088420CD01C490134884208D01B4901349B
:102AC000884204D01A490334884200D1023CB44001
:102AD00000993C430E00AC60164CCD4327683E4342
:102AE000D10301D43E002E4026606768009E3E431D
:102AF000910301D43E002E406660A768009E3E43CD
:102B0000D10201D43E002E40A660E668009F374304
:102B1000920201D42E403700E760013362E7C046DD
:102B20000010024000000140000400480008004876
:102B3000000C004800040140002A01D08161704768
:102B40008162FCE703689A69920701D500229A62C4
:102B500001229969114202D199690A439A61704729
:102B600030B504680648656889052840039D890DCD
:102B70002B43194312040A430243626030BDC0462E
:102B8000009800FCF8B504000E0017001D00226834
:102B9000936933409B1B59424B41BB4201D00020FB
:102BA0000EE06B1CF4D0002D0BD12300202241330A
:102BB0001A70220000230320423240341370237025
:102BC000F8BDFFF795FE069BC01A8542DFD2ECE701
:102BD000F8B503680400986910230E001700184028
:102BE0002025002815D1F8BD721C13D0002E0BD162
:102BF0002300202241331A70220000234232403445
:102C0000137003202370EEE7FFF772FEC01B8642AD
:102C1000EED323689A692A42E6D010222000DA61B6
:102C2000DD61FFF78FFF22680849536801200B40E0
:102C30005360042363642300220041331D7000238A
:102C40004232403413702370CDE7C04600E800FEE6
:102C5000F8B504000D001600022723689B693B426B
:102C600001D0002018E0320029002000FFF7B0FF5B
:102C7000002818D16B1CF0D0002D0ED12022636CDF
:102C8000032013436364230041331A70220000239E
:102C90004232403413702370F8BDFFF729FE801BC9
:102CA0008542DAD2EAE70120F6E70000F8B5040031
:102CB0000D0017002026042223689B69134201D0CF
:102CC000002025E03A0029002000FFF781FF0028BE
:102CD0000FD123689A6932420DD0DE615A681049DB
:102CE0000A405A6023006064413340341E705870BB
:102CF000207001200CE0002D0BD12022636C0320FA
:102D000013436364230041331A700023403423705B
:102D1000F8BDFFF7EDFDC01B8542CCD2EDE7C04604
:102D200000E800FEF8B504000D0016002027236817
:102D30009B693B4201D0002016E0320029002000B0
:102D4000FFF746FF002816D1002D0ED12022636C1C
:102D5000032013436364230041331A7022000023CD
:102D60004232403413702370F8BDFFF7C1FD801B61
:102D70008542DCD2EAE70120F6E7000070B50400E6
:102D80000120002C3FD0250041352B78DBB2002BF1
:102D900005D1220040321370200000F0CBFE242326
:102DA00001212B702368E0681A68A6688A431A60BC
:102DB00061681A4A0A401A619968194A1140996073
:102DC000012821D1802109023143996058681549B1
:102DD00001435960D96800200A40DA6061692269BC
:102DE0000A43A16909020A43DA60216AE2690A43D7
:102DF0001A60012219680A431A60202360642B704C
:102E000020634234207070BD8421090231439960EF
:102E10000228DBD1802109015960D7E7FFFFFFF0CD
:102E2000FF7FFFFF00800002F0B5050087B003912F
:102E30000492059341352B7804000220202B57D1B2
:102E4000230040331A78012A52D001261E70FFF762
:102E50004FFD802107000090192332000902200055
:102E6000FFF790FE002842D121232B70113BAD19B2
:102E70002B70049B606463626B469B8A606363850E
:102E80008023628D9B01FF2A21D9FF222285009396
:102E900080235B0403992000FFF762FEFF26638D09
:102EA0003A000C992000002B19D1FFF73BFF0028B6
:102EB00019D120212368274ED9615A6832405A60BF
:102EC00023004034413319702870207010E0628D67
:102ED00092B2228500938023D2B29B04DAE7FFF7F7
:102EE000B7FE002806D0636C0120042B00D003201D
:102EF00007B0F0BD636A2268591C61621B78936257
:102F0000638D228D013B013A9BB292B2638522858B
:102F1000002AC4D1638D002BC1D000970C9B802167
:102F20002000FFF72FFE0028E1D1638DFF2B09D988
:102F30008023FF2226855B04009003992000FFF781
:102F40000FFEACE78023628D9B0492B22285D2B241
:102F50000090F2E700E800FEF0B5050087B00391AD
:102F60000492059341352B7804000220202B57D181
:102F7000230040331A78012A52D001261E70FFF731
:102F8000B7FC8021070000901923320009022000BD
:102F9000FFF7F8FD002842D122232B70123BAD1918
:102FA0002B70049B606463626B469B8A60636385DD
:102FB0009023628D9B01FF2A21D9FF222285009355
:102FC00080235B0403992000FFF7CAFDFF26638D71
:102FD0003A000C992000002B19D1FFF7A3FE00281E
:102FE00019D120212368274ED9615A6832405A608E
:102FF00023004034413319702870207010E0628D36
:1030000092B2228500938023D2B29B04DAE7FFF7C5
:103010004DFE002806D0636C0120042B00D0032055
:1030200007B0F0BD636A5A1C62622268526A1A7065
:10303000228D638D013A013B92B29BB2228563855A
:10304000002AC4D1638D002BC1D000970C9B802136
:103050002000FFF797FD0028E1D1638DFF2B09D9F0
:103060008023FF2226855B04009003992000FFF750
:1030700077FDACE78023628D9B0492B22285D2B2A9
:103080000090F2E700E800FEF0B504004134227839
:103090000300D2B20220202A18D11D0040352E781C
:1030A000012E13D01B68223020701E6823388643FF
:1030B0001E601E68064F3E401E601E683143196048
:1030C000196808431860002022702870F0BDC046BF
:1030D000FFEFFFFFF0B5050041352A780300D2B2BB
:1030E0000220202A17D11C0040342678012E12D04D
:1030F0001B68223028701E68233886431E601E68B5
:10310000054F09023E4031431960196808431860B1
:1031100000202A702070F0BDFFF0FFFFF0B50368BB
:1031200085B00500DB072FD42B689B0700D581E015
:103130002B681B0700D5BCE02B685B0700D5DFE0E0
:103140002B68DB061AD56A69B54C0423012A00D026
:103150004BE1616B02260B436363636B1A4362634B
:10316000FFF7C6FB0700636B334200D136E1F8215D
:10317000626BAB698A43DB0013436363296A0029EE
:1031800000D059E1002013E00C21A54C62680A40F0
:10319000042A06D063680B40082B0BD16368DB035D
:1031A00008D523689B03BFD56B68002BBCD10120D9
:1031B00005B0F0BD6B68012B13D1802322685B0240
:1031C00013432360FFF794FB80260700B6022368B1
:1031D0003342A9D1FFF78CFBC01B6428F7D9032029
:1031E000E6E7002B16D123688E4A80261340236021
:1031F00023688D4AB60213402360FFF779FB07006E
:103200002368334200D18FE7FFF772FBC01B6428AD
:10321000F6D9E4E7052B05D180232268DB021343AE
:103220002360CAE723687F4A1340236023687E4AED
:103230001340C6E70C227A4C6368134206D06368D9
:103240001340082B10D16368DB030DD423689B0760
:1032500002D5EB68012BAAD1F82122682B698A4399
:10326000DB001343236063E7EA680123002A0FD0E1
:103270002268022613432360FFF73AFB0700236806
:103280003342E9D1FFF734FBC01B0228F7D9A6E788
:10329000226802269A432260FFF72AFB0700236870
:1032A000334200D144E7FFF723FBC01B0228F6D9C5
:1032B00095E7EA6901235A4C002A10D0626A022677
:1032C00013436362FFF714FB0700636A334200D0C5
:1032D00032E7FFF70DFBC01B0228F6D97FE7626AD1
:1032E00002269A436262FFF703FB0700636A3342D8
:1032F00000D121E7FFF7FCFAC01B0228F6D96EE7E0
:1033000080220021464C5205E3690091134208D106
:10331000E3691343E361E36913400393039B0123D0
:1033200000938027414E7F0033683B4206D0AB6854
:10333000012B13D1226A1343236230E033683B43ED
:103340003360FFF7D5FA019033683B42EFD1FFF7C6
:10335000CFFA019BC01A6428F6D940E70122002B5E
:1033600014D1236A022793432362236A03329343CF
:103370002362FFF7BDFA0600236A3B4225D0FFF720
:10338000B7FA2B4B801B9842F6D928E7052B0BD1B7
:10339000216A013B0B432362236A1A432262FFF72F
:1033A000A7FA022706000DE0236A93430422236252
:1033B000236A9343C0E7FFF79BFA1D4B801B98429B
:1033C00000D90CE7236A3B42F5D0009B012B00D0CB
:1033D000B6E6E369174A1340E361B1E6FFF788FAFE
:1033E000C01B022800D8BEE6F9E6053203D1626BA5
:1033F0009A436263BBE6626B022613430122636356
:10340000636B93436363FFF773FA0700636B3342A5
:1034100000D1B3E6FFF76CFAC01B0228F6D9DEE64E
:1034200000100240FFFFFEFFFFFFFBFF00700040A7
:1034300088130000FFFFFFEF0C22264C0120636879
:103440001340082B00D1B3E62368234A13402360BE
:1034500002292FD1FFF74CFA80260700B604236813
:10346000334221D10F22E36A9343EA6A1343E362B2
:10347000696AAB6A62680B43184980250A401343A6
:103480006360802322685B0413432360FFF730FAF4
:103490000600AD0423682B4200D073E6FFF728FA3C
:1034A000801B0228F6D99AE6FFF722FAC01B0228F1
:1034B000D5D994E6FFF71CFA80250600AD042368F1
:1034C0002B4200D15EE6FFF713FA801B0228F6D9E3
:1034D00085E6C04600100240FFFFFFFEFFFFC2FF6F
:1034E00070B5144C88B010222100684600F0CEFB65
:1034F000210004AD10221031280000F0C7FB0C227F
:103500000D4E73681A40082A11D10F206A46990C93
:103510000140545CF26A0240A95CDB0305D5074810
:10352000FCF7F2FD604308B070BD0548FAE70348B8
:10353000F9E7C046404100080010024000127A003E
:1035400000093D00F7B50122434C060023680F0037
:1035500013408B421CD33268930723D4D30729D45A
:10356000012322681A40974267D333683B4C5B07BC
:103570006AD4FFF7B5FF6368394A1B061B0FD35C9B
:10358000D840384B18600020FFF788F9002008E089
:10359000236893430B432360236813409942DAD096
:1035A0000120FEBDF0202D494B688343B0680343E2
:1035B0004B60D3E7294D72682B68012A1AD19B030F
:1035C000EED503216B688B4313436B60FFF790F9D3
:1035D00073680190012B15D10C226B681340042BEA
:1035E000BED0FFF785F9019BC01A1F4B9842F3D953
:1035F0000320D6E7022A02D19B01E2D4D0E79B0741
:10360000DFD4CDE7022B12D00C226B681342A7D077
:10361000FFF76EF9019BC01A134B9842F4D9E7E704
:10362000FFF766F9019BC01A0F4B9842E0D80C22B5
:103630006B681340082BF3D192E722689A4322600B
:1036400022681A42ACD190E76368084A1340F268D6
:10365000134363608DE7C046002002400010024023
:10366000A04200080C00002088130000FFF8FFFFB4
:10367000014B18687047C0460C000020F0B5036885
:1036800085B00500DB0328D5802200213B4C520584
:10369000E3690091134208D1E3691343E361E369ED
:1036A00013400393039B012300938027344E7F0034
:1036B00033683B422FD0C022236A92001340314E20
:1036C0003BD1236A1E406B681E43009B2662012B80
:1036D00003D1E3692C4A1340E3612A68D30706D576
:1036E000032026490B6B8343A86803430B639306AF
:1036F00006D5102021490B6B8343E86803430B6315
:103700000020530517D540211C4A136B8B432969B0
:103710000B4313630FE033683B433360FFF7E8F874
:10372000019033683B42C6D1FFF7E2F8019BC01A13
:103730006428F6D9032005B0F0BD69680A409342B9
:10374000BFD08023226A206A11005B0203432362F8
:10375000236A0E483140034023622162D307B0D56B
:10376000FFF7C6F807000222236A1342A9D1FFF728
:10377000BFF8074BC01B9842F5D9DBE700100240A9
:1037800000700040FFFCFFFFFFFFFFEFFFFFFEFFA9
:1037900088130000F7B50B23FA26104C104F114D7B
:1037A0002370B6000A3B398863702200009601330B
:1037B0002800FFF739FB6420FFF7A0F809232370E6
:1037C000143339886370220000961B3B2800FFF7F2
:1037D0002BFB6420FFF792F8F7BDC0469000002055
:1037E0000800002038000020F7B5FA26274F284DA2
:1037F000B600398801230096264A2800FFF714FBFB
:10380000254C39882200009606232800FFF7A4FBE8
:10381000637820781B02184300B2FDF71BFA1F4B98
:10382000061C1860E378A0781B02184300B2FDF76D
:1038300011FA1B4B051C1860637920791B02184391
:1038400000B2FDF707FA174B041C1860164B301C2A
:103850001F68391CFCF7EEFE1449FDF7DBF8144B2A
:10386000391C1860281CFCF7E5FE1049FDF7D2F85A
:10387000104B1860104B201C1968FCF7DBFE0B493D
:10388000FDF7C8F80D4B1860F7BDC04608000020D2
:10389000380000202C00002090000020A400002010
:1038A0008800002098000020000000200000C8428E
:1038B0009C00002084000020040000203400002030
:1038C000F8B52A4A2A4B1A602A4A2B4B1A60FFF78E
:1038D0008BFF2A4B1868FEF7E7FE04000D00284B0B
:1038E0001868FEF7E1FE22002B0000F0D8F9254C05
:1038F000254B1C60FEF72AFF211CFCF709FD002167
:10390000051CFCF7DDFC214C002823D12560206834
:10391000FEF7CAFE1E4A1F4B06000F00FCF7AAFC6A
:10392000002808D01A4A1B4B30003900FEF7A6FBCE
:10393000FEF70CFF206018492068FDF76BF8FEF7D2
:10394000B3FE134A154BFDF7E5FCFEF7FFFE144BE3
:103950001860F8BD281CFEF7A7FE0D4A0D4BFDF7B9
:10396000C9F9FEF7F3FE2060D1E7C0460080894424
:103970000000002000007544040000209C0000208E
:1039800084000020EA95B23D8C000020A8000020B1
:10399000EA2E4454FB21194000003443FB21094026
:1039A000A0000020102330B5A02297B002240125EA
:1039B0000E93002392030AA80A940D951294139370
:1039C00014921593FFF7AAFB002800D0FEE7072307
:1039D00003900490290001A801930294FFF7B2FD1F
:1039E000002800D0FEE72023089005A80593FFF7E4
:1039F00045FE041E00D0FEE7FFF73AFEFA218900DB
:103A0000FCF782FBFEF7BAFF0420FEF7D1FF01208E
:103A1000220021004042FEF781FF17B030BD0000B8
:103A200070B588B0FEF74CFFFFF7BCFF8020284B35
:103A3000C0035969C024014359615A6900250240F5
:103A400080200092009A5969000301435961802146
:103A500001265A69C90202400192019A5A69A400DA
:103A60000A435A615B6900220B4002932100194806
:103A7000029BFFF761F803A9164803940496059585
:103A80000695FEF7A9FF144C144B20002360144B3D
:103A9000A5606360E66025616561A561E5612562F9
:103AA000FFF76CF90100A84200D0FEE72000FFF705
:103AB000EBFA011E00D0FEE72000FFF70BFB002809
:103AC00000D0FEE7FFF766FEFFF7FAFEFCE7C04610
:103AD0000010024000080048380000200054004058
:103AE0000E09002007B50120114B99690143996126
:103AF00080219A69490502400092009ADA690638E5
:103B00000A43DA610022DB690B4001931100019B3B
:103B1000FEF704FF0022022011004042FEF7FEFEE5
:103B20000022012011004042FEF7F8FE07BDC0460A
:103B3000001002407FB50E4B02689A4216D1C02396
:103B400003220193AE3B029301A9113B0948039361
:103B500004920593FEF740FF8020074A8003D16955
:103B60000143D161D36903400093009B07B000BDBE
:103B70000054004000040048001002407047FEE777
:103B80007047704710B5FEF7ABFEFEF720FF10BD83
:103B90000121114B11481A680A431A605A68024001
:103BA0005A601A680E4802401A601A680D480240AE
:103BB0001A605A680C4802400F205A60DA6A824341
:103BC000DA621A6B094802401A635A6B8A435A63D5
:103BD00000229A607047C046001002400CB8FFF8FF
:103BE000FFFFF6FEFFFFFBFFFFFFC0FFACFEFFFF86
:103BF0000D4885460D480E490E4A002302E0D45870
:103C0000C4500433C4188C42F9D30B4A0B4C002324
:103C100001E013600432A242FBD3FFF7B9FF00F0CA
:103C200011F8FFF7FDFEFEE7002000200000002055
:103C300010000020F842000810000020AC00002016
:103C4000FEE7000070B500260C4D0D4C641BA4105F
:103C5000A64209D1002600F065FA0A4D0A4C641B01
:103C6000A410A64205D170BDB300EB5898470136A9
:103C7000EEE7B300EB5898470136F2E7F042000850
:103C8000F0420008F0420008F4420008002310B59A
:103C90009A4200D110BDCC5CC4540133F8E710B592
:103CA00000F002F810BD0000F7B554425E00144366
:103CB000484D7608E40F019000913443AC4208D897
:103CC00044424D000443434F6D08E40F2C43BC4273
:103CD00003D9FDF70FF803B0F0BD3F4C1C19144396
:103CE00002D100F093F8F6E79C17A4460224674639
:103CF0003C40009FFF0F3C43019F2F4306D1022C05
:103D00002CD0032CE7D135483549E4E73700174379
:103D100005D1009B3148002B59DA3249DBE72D4FA2
:103D2000BE421ED1B5420ED1022C06D0032C07D0C4
:103D30002A48012C49D12C49CDE72C482C49CAE707
:103D40002A482C49C7E7022C08D0032CDBD00020DE
:103D50000021012CBFD180210906BCE71F4826495C
:103D6000B9E71C4FBD42D4D0AD1B2D153C2D16DC40
:103D7000002B01DA3C3515DBFDF7CCFA00F0CEF96B
:103D800000F044F8012C10D0022C13D0002CA2D04B
:103D90001A4A1B4BFEF772F9104A174B12E00F48F4
:103DA0001849EFE700200021ECE7802424060B19D6
:103DB000190090E7114A124BFEF760F902000B0060
:103DC00006480D49FEF75AF985E70F4983E70D4983
:103DD00081E7C0460000F07F000010C0182D445459
:103DE000FB2109C0FB21F9BFFB21E9BFD221337FB1
:103DF0007CD902407CD902C0FB210940075C143306
:103E000026A6A13CFB21F93FFB21E93FF0B59C4BE5
:103E100085B04E0004000D00039176089E4218DD27
:103E2000984B9E4202DC0AD1002808D022002B00C9
:103E300020002900FCF75EFF04000D0005E0039B55
:103E4000914C002B00DD18E1904D2000290005B0B9
:103E5000F0BD8F4B9E420FDC8E4B9E4209DC8E4A9A
:103E60008E4BFCF747FF00228D4BFCF703FA00282E
:103E7000EBD101235B4225E000F050F9894B0400AF
:103E80000D009E4200DDAAE0874B9E4200DD90E0DF
:103E900002000B00FCF72EFF0022814BFEF7EEF82C
:103EA000802306000F000022DB0520002900FCF71C
:103EB00021FF0B00020039003000FDF72BFA002330
:103EC00004000D00029322002B0020002900FDF7C2
:103ED00055FE02000B0000900191FDF74FFE060019
:103EE0000F00724A724BFDF749FE724A724BFCF7A3
:103EF00001FF32003B00FDF741FE704A704BFCF7BA
:103F0000F9FE32003B00FDF739FE6E4A6E4BFCF7BE
:103F1000F1FE32003B00FDF731FE6C4A6C4BFCF7C2
:103F2000E9FE32003B00FDF729FE6A4A6A4BFCF7C6
:103F3000E1FE009A019BFDF721FE684A0090019185
:103F4000674B30003900FDF719FE664A664BFEF7F5
:103F500095F832003B00FDF711FE644A644BFEF712
:103F60008DF832003B00FDF709FE624A624BFEF716
:103F700085F832003B00FDF701FE604A604BFEF71A
:103F80007DF832003B00FDF7F9FD0B0002990200BD
:103F900001314BD100980199FCF7ACFE22002B00B7
:103FA000FDF7ECFD02000B0020002900FEF766F88B
:103FB00042E700223A4BFEF761F8002206000F00AC
:103FC000374B20002900FCF795FE0B00020039005A
:103FD0003000FDF79FF9012304000D0072E7494B03
:103FE0009E4219DC0022484BFEF748F800220600EA
:103FF0000F00454B20002900FDF7C0FD0022284B93
:10400000FCF778FE0B00020039003000FDF782F962
:10401000022304000D0055E70B0002003B4900207D
:10402000FDF778F9032304000D004BE70299384FA0
:10403000CE0000980199FCF75DFE22002B00FDF7F1
:104040009DFD344BBF199E1932687368FEF716F850
:1040500022002B00FEF712F80B0002003868796886
:10406000FEF70CF8039B04000D00002B00DBECE6D0
:10407000802109066B181D00E7E6274DE5E6C046DE
:10408000FFFF0F440000F07F182D4454FB21F9BFBF
:10409000FFFFDB3FFFFF1F3E9C7500883CE4377E3F
:1040A0000000F03FFFFFF23FFFFFE53F11DA22E3A0
:1040B0003AAD903FEB0D76244B7BA93F513DD0A00C
:1040C000660DB13F6E204CC5CD45B73FFF830092D2
:1040D0002449C23F0D5555555555D53F2F6C6A2C77
:1040E00044B4A2BF9AFDDE522DDEAD3F6D9A74AF8F
:1040F000F2B0B33F711623FEC671BC3FC4EB989972
:104100009999C93FFF7F03400000F83F0000F0BFCE
:10411000B0420008D0420008FB21F93F49004B089B
:1041200019007047F8B5C046F8BC08BC9E467047F9
:0C413000F8B5C046F8BC08BC9E467047BD
:1041400002030405060708090A0B0C0D0E0F1010D8
:104150000102030405060708090A0B0C0D0E0F10D7
:10416000C007000890070008A2070008E40600083E
:10417000A207000886070008A2070008E406000856
:10418000900700089007000886070008E40600086A
:10419000EC060008EC060008EC060008A80700087A
:1041A0009007000890070008640700084808000806
:1041B000640700088607000864070008480800082C
:1041C00090070008900700088607000848080008C4
:1041D000EC060008EC060008EC060008520800088F
:1041E000400B0008900A0008900A00088E0A000898
:1041F000320B0008320B0008280B00088E0A00085A
:10420000320B0008280B0008320B00088E0A000849
:10421000380B0008380B0008380B0008C80B0008E2
:104220000C150008EE140008A8140008C6130008B6
:10423000A8140008E0140008A8140008C613000819
:10424000EE140008EE140008E0140008C61300087D
:10425000BE130008BE130008BE1300082417000890
:104260006C1D00082C1C00082C1C0008281C0008D1
:10427000441D0008441D0008361D0008281C0008C5
:10428000441D0008361D0008441D0008281C0008B5
:104290004C1D00084C1D00084C1D0008501F000854
:1042A00000000000000000000102030406070809E6
:1042B0004FBB610567ACDD3F182D4454FB21E93F3E
:1042C0009BF681D20B73EF3F182D4454FB21F93F2D
:1042D000E2652F227F2B7A3C075C143326A6813CB3
:1042E000BDCBF07A8807703C075C143326A6913C5E
:0442F000E9000008D9
:0442F400C1000008FD
:1042F80000808944000075441B00000000127A0009
:0400000508003BF1C3
:00000001FF
